:020000040800F2
:1000000040040020490100085104000827040008AA
:100010004D04000891010008D50800080000000008
:1000200000000000000000000000000011060008B1
:10003000950100080000000001050008FD06000809
:100040006301000863010008630100086301000800
:1000500063010008630100089901000863010008BA
:1000600063010008630100086301000863010008E0
:1000700063010008630100086301000863010008D0
:1000800063010008630100086301000863010008C0
:1000900063010008630100086301000863010008B0
:1000A00063010008630100086301000863010008A0
:1000B0006301000863010008630100086301000890
:1000C0006301000863010008630100086301000880
:1000D0006301000863010008630100086301000870
:1000E0006301000863010008630100086301000860
:1000F0006301000863010008630100086301000850
:10010000630100086301000863010008630100083F
:10011000630100086301000863010008630100082F
:10012000630100086301000863010008630100081F
:10013000DFF810D000F01AF8004800474D09000819
:10014000AFF300804004002006488047064800477F
:10015000FEE7FEE7FEE7FEE7FEE7FEE7FEE7FEE777
:10016000FEE7FEE70107000831010008064C074DD5
:1001700006E0E06840F0010394E807009847103477
:10018000AC42F6D3FFF7D8FF94090008B409000881
:1001900000BFFEE77047000010B5012000F036F800
:1001A00058B14FF6FF71054800F03BF92021034894
:1001B00000F035F9012000F023F810BD000C0140DB
:1001C00010B510200B490860002008710C20487100
:1001D00001208871084600F02DF80421002000F06D
:1001E00073F81020044908800420C870034800F008
:1001F0008BF810BD1C0000202400002000080140E6
:1002000001490860704700001404014001460020C5
:100210000022074B1B6803EA0102054B14331B68DD
:100220000B4013B10AB1012000E00020704700002C
:1002300000040140002123498279002A3AD00A466D
:10024000126803689A430B461A600A1D1268036815
:100250009A430B1D1A60027911440A6803681A4315
:100260000A60184A0832126803689A43154B08332B
:100270001A601A1D126803689A43124B0C331A60F5
:100280004279102A0ED11A1F126803681A430D4BC7
:1002900008331A601A1D126803681A43094B0C339D
:1002A0001A600DE00749427911440A6803681A434D
:1002B0000A6005E0027911440A6803689A430A60FB
:1002C000704700000004014030B500228B071C0F6E
:1002D0000F2303FA04F20B4B8C1053F82430934392
:1002E000084C8D1044F8253023468C1053F82430E8
:1002F0008C07240F00FA04F42343024C8D1044F8B9
:10030000253030BD080001402DE9F04102460025AE
:100310000026002000230024002791F803C00CF0E1
:100320000F0591F803C00CF0100CBCF1000F03D0C6
:1003300091F802C04CEA050591F800C0BCF1000F2D
:1003400031D0146800202BE04FF0010C0CFA00F3C0
:10035000B1F800C00CEA03069E4220D183004FF0A2
:100360000F0C0CFA03F7BC4305FA03FC4CEA040437
:1003700091F803C0BCF1280F06D14FF0010C0CFA24
:1003800000FCC2F814C00AE091F803C0BCF1480FA9
:1003900005D14FF0010C0CFA00FCC2F810C0401C53
:1003A0000828D1D31460B1F800C0BCF1FF0F34DDD0
:1003B000546800202EE000F1080C4FF0010808FA04
:1003C0000CF3B1F800C00CEA03069E4221D1830071
:1003D0004FF00F0C0CFA03F7BC4305FA03FC4CEA90
:1003E000040491F803C0BCF1280F05D100F1080CFA
:1003F00008FA0CF8C2F8148091F803C0BCF1480F59
:1004000007D100F1080C4FF0010808FA0CF8C2F807
:100410001080401C0828CED35460BDE8F0814161B3
:1004200070470161704700BFFEE7000010B5232050
:1004300004490880032088701020C8700248FFF724
:1004400063FF10BD24000020000C014000BFFEE748
:100450007047000010B54FF4C06000F047F80A2064
:100460000549087000204870022088700120C8707B
:10047000084600F003F810BD1600002070B50021FA
:1004800000230F22C47804B3154C246804F4E064FC
:10049000C4F5E064210AC1F10403CA40447804FAB7
:1004A00003F184781440214309010E4C0678A155CC
:1004B000047804F01F050124AC4005786D11AD00EF
:1004C00005F1E025C5F8004109E0047804F01F05B6
:1004D0000124AC40044D0678761145F8264070BDE5
:1004E0000CED00E000E400E080E100E0024901439F
:1004F000024A1160704700000000FA050CED00E0B0
:100500007047000029B1064A92690243044B9A6180
:1005100004E0034A92698243014B9A6170470000EC
:100520000010024010B5012144F20800FFF7EAFF75
:1005300001210520FFF7E6FF10BD000030B50021C6
:100540000022002400232D4D6D6805F00C0121B11F
:10055000042905D0082923D105E0294D056022E0B2
:10056000274D05601FE0254D6D6805F47012234D81
:100570006D6805F48034022505EB92421CB9214DCB
:10058000554305600BE01D4D6D6805F400351DB148
:100590001C4D5543056002E0194D5543056002E0CE
:1005A000174D056000BF00BF144D6D6805F0F001E8
:1005B0000909154D6B5C0568DD4045600F4D6D68A0
:1005C00005F4E061090A104D6B5C4568DD4085600B
:1005D0000A4D6D6805F46051C90A0B4D6B5C4568A6
:1005E000DD40C560054D6D6805F44041890B074D40
:1005F0006B5CC568B5FBF3F5056130BD00100240CA
:1006000000127A0000093D000000002010000020C8
:10061000704710B500F002F810BD00000CB50020C6
:10062000019000903348006840F480303149086000
:1006300000BF3048006800F4003000900198401C72
:100640000190009818B90198B0F5A06FF1D1294830
:10065000006800F4003010B10120009001E000209B
:1006600000900098012843D12348006840F0100012
:10067000214908600846006820F003000860084629
:10068000006840F0020008601A4840681949486054
:100690000846406848600846406840F4806048600A
:1006A0000846406820F47C1048600846406840F4E2
:1006B000E81048600846006840F08070086000BF9D
:1006C0000C48006800F000700028F9D00948406824
:1006D00020F00300074948600846406840F00200E7
:1006E000486000BF0348406800F00C000828F9D1BA
:1006F0000CBD0000001002400020024070470000C6
:1007000010B51348006840F0010011490860084620
:100710004068104908400E494860084600680E4984
:1007200008400B4908600846006820F480200860F3
:100730000846406820F4FE0048604FF41F008860BF
:10074000FFF767FF4FF000600449086010BD00002C
:10075000001002400000FFF8FFFFF6FE08ED00E089
:1007600010B54FF4007012490880032088701820DB
:10077000C8701048FFF7C8FD4FF480600C4908802E
:100780000420C8700B48FFF7BFFD4FF416500A490C
:10079000086000208880C88008810C2048810748B4
:1007A00000F028F80121054800F00AF810BD00000B
:1007B00024000020000801402C00002000380140E7
:1007C00021B1828942F40052828104E082894DF68F
:1007D000FF731A408281704702460020B1F5007F06
:1007E00000D100BF13880B400BB1012000E00020B6
:1007F000704700002DE9F04786B005460E460024FC
:10080000A24600BFA1460027B08900B100BF2F4615
:100810002C8A4CF6FF700440F08804432C82AC898B
:100820004EF6F3100440B0883189084371890843BB
:100830000443AC81AC8A4FF6FF400440B0890443C6
:10084000AC8201A8FFF77AFE1F48874202D1DDF88B
:1008500010A001E0DDF80CA0A88900F4004040B130
:100860000AEBCA0000EB0A1031684900B0FBF1F84E
:1008700007E00AEBCA0000EB0A1031688900B0FB00
:10088000F1F86420B8FBF0F004012009642101FBB9
:100890001089A88900F4004040B1322000EBC90063
:1008A000B0FBF1F000F00700044308E0322000EB59
:1008B00009106421B0FBF1F000F00F0004432C811B
:1008C00006B0BDE8F087000000380140C1F308021F
:1008D0008280704700BFFEE7014A024900F013B86A
:1008E000290900082800002002E008C8121F08C1DA
:1008F000002AFAD170477047002001E001C1121FA1
:10090000002AFBD170472DE9F04116460F460446F8
:10091000002503E03946B047641C6D1C2078002890
:10092000F8D12846BDE8F08170B504460D46E1B225
:100930000548FFF7CBFF00BF40210348FFF74CFFFE
:100940000028F9D0204670BD00380140FFF7EAFDCD
:10095000FFF76CFDFFF704FFFFF77CFDFFF730FCAE
:100960004FF6FF710348FFF75CFD03A0FFF7B4FFEC
:1009700000BFFEE7000C01400A0D2D5553415254B3
:10098000205072696E7466204578616D706C652DBB
:100990000A0D0000B4090008000000202C0000002F
:1009A000E8080008E00900082C00002014040000FA
:1009B000F80800080000000001020304010203041B
:1009C00006070809020406080000000000000000F5
:1009D0000000000000000000000000000000000017
:0400000508000149A5
:00000001FF
